:020000040800F2
:1000000068B100204D030008D38005089D01000859
:10001000557D0508495405089DAC05080000000001
:1000200000000000000000000000000019020008AD
:100030007954050800000000C502000839030008D3
:1000400067030008670300086703000867030008E8
:1000500067030008670300086703000867030008D8
:1000600067030008670300086703000867030008C8
:1000700067030008670300086703000867030008B8
:1000800067030008670300086703000867030008A8
:100090006703000867030008670300086703000898
:1000A0006703000867030008670300086703000888
:1000B000B99705086703000867030008670300088D
:1000C0006703000867030008670300086703000868
:1000D0006703000867030008670300086703000858
:1000E0007B540508670300086703000867030008DE
:1000F0006703000867030008670300086703000838
:100100006703000867030008E59705086703000810
:1001100099A505086703000867030008670300083E
:100120006703000867030008670300086703000807
:1001300067030008670300086703000867030008F7
:1001400067030008670300086703000867030008E7
:1001500067030008670300086703000867030008D7
:1001600067030008670300086703000867030008C7
:1001700067030008670300086703000867030008B7
:100180006703000867030008DFF80CD000F06EFD7D
:1001900000480047599C060868B100201EF0040F73
:1001A0000CBFEFF30880EFF3098068F039BD000061
:1001B00080F309887047EFF309807047684680F341
:1001C000098804480078C00714BF0220032080F388
:1001D000148870476CAC0608DFF818C0EFF305838D
:1001E0001B0618BF6047EFF31483DB0708BF6047A7
:1001F00000DF70471D9D0608DFF818C0EFF3058388
:100200001B0618BF6047EFF31483DB0708BF604786
:1002100000DF7047819F0608EFF30980816911F8BC
:10022000021CC9BB10B590E80F10E047BDE81040B4
:10023000EFF3098C204B93E80600914229D081B15D
:100240000CB41EF0100F06BF2CED108A03230123FF
:1002500081F821302CE9F00FC1F824C06AF072F85F
:100260000CBC1A60D2F824C0BCE8F00F92F8213020
:1002700013F0020F1ABFBCEC108A6FF0120E6FF071
:10028000020E8CF3098813F0010F08BF704792F833
:100290002000CCF80000704710B5084A126891425F
:1002A00009D8074C54F8214090E80F10A047EFF30D
:1002B000098C8CE80F0010BD2C0100202C52050881
:1002C0002C52050810B569F035FFBDE81040194BF8
:1002D00093E80600914208BF70470CB4EFF3098C15
:1002E0001EF0100F06BF2CED108A0223002381F8A8
:1002F00021302CE9F00FC1F824C06AF023F80CBCBF
:100300001A60D2F824C0BCE8F00F92F8213013F044
:10031000020F1ABFBCEC108A6FF0120E6FF0020EC3
:100320008CF3098813F0010F1CBF92F82030CCF831
:10033000003070472C01002010B56AF0D5F8C4E7F2
:1003400010B569F0E3FC6AF0CFF8BEE706488047D5
:1003500006480047FEE7FEE7FEE7FEE7FEE7FEE7AA
:10036000FEE7FEE7FEE7FEE75D9705088901000866
:1003700062B6704772B6704750E8002F40E800132D
:10038000002BF9D1BFF35F8F104670472DE9F04184
:1003900000242546002905DA01240027D0EB0700B8
:1003A00067EB0101002B05DA0027D2EB07020125DC
:1003B00067EB030300F00EFB86460E4617469C468D
:1003C000AC4204D00025D0EB050E65EB010624B14C
:1003D0000020D2EB000760EB030C704631463A4632
:1003E0006346BDE8F081202A04DB203A00FA02F1DE
:1003F000002070479140C2F1200320FA03F3194313
:1004000090407047202A04DB203A21FA02F00021B4
:10041000704721FA02F3D040C2F120029140084314
:1004200019467047202A06DBCB17203A41FA02F022
:1004300043EAE07306E041FA02F3D040C2F1200241
:10044000914008431946704710B5431A934209D2A8
:100450008318881803E010F8011D03F8011D521ECF
:10046000F9D210BD40EA01039B0703D009E008C997
:10047000121F08C0042AFAD203E011F8013B00F869
:10048000013B521EF9D210BDD2B201E000F8012B9F
:10049000491EFBD270470022F6E710B513460A4604
:1004A00004461946FFF7F0FF204610BD2DE9FE4F28
:1004B000804681EA0300C00F0C46009021F0004105
:1004C00023F00045B8EB0200A94105D24046214681
:1004D00090461C460B46024623F00040104304D1D0
:1004E0004046214603B0BDE8F08F270DC7F30A0050
:1004F000C3F30A510290401A0190402866DAC3F310
:10050000130040F4801B0098924620B10023D2EBE8
:10051000030A63EB0B0B01985946C0F140025046A9
:10052000FFF761FF06460D4650465946019AFFF710
:1005300079FF10EB08006141002487EA115284EA38
:10054000E7731A433BD0009A3AB3019A012A4FEA63
:10055000075210DC001B61EB02014FF0004202EA7F
:100560000752CDE90042001C41F5801132462B466E
:1005700000F0D1FAB6E7001B61EB0201001C41F567
:10058000801300185B412018A2F5001747EB030108
:1005900040EAD570B6196D4111E06D084FEA360694
:1005A00045EAC0754FEA0752001B61EB0201001CCF
:1005B00041F5801149084FEA300000195141324697
:1005C0002B4603B0BDE8F04F00F098BA0098012226
:1005D00040000023D0EB020263EBE0730098214659
:1005E0004FEAE074B8EB000061EB0401E9E783F047
:1005F00000435BE781F0004158E72DE9FE4F81EAB7
:10060000030404F0004421F0004100944FF0000B7B
:1006100023F0004350EA010402D052EA030404D15B
:100620000020014603B0BDE8F08FC3F30A54C1F3C4
:100630000A552C44A4F2F3340194A0FB0254C1F3F4
:10064000130141F48011C3F3130343F4801301FB3E
:10065000024400FB034E840A970A44EA815447EAA5
:100660008357A4FB076802958D0A05FB07854FEAAF
:10067000932C04FB0C542705029D4FEA065847EAC9
:100680001637B5EB08056EEB070C870E920E47EA9E
:10069000811742EA8312A7FB0201B6EB0B0164EB60
:1006A00000042B0D43EA0C335E1844EB1C50DA4671
:1006B0005146E7FB0201C5F313044FEA0B3343EA4B
:1006C00014534FEA0432019C43EA0603A4F10C04DC
:1006D0000294009CCDE900B400F01DFAA2E72DE9D8
:1006E000F04D81EA030404F0004B21F0004514466C
:1006F0004FF0000A23F0004150EA050220D054EAEE
:1007000001021DD0C5F30A570246C5F31303C1F316
:100710001300C1F30A5640F4801543F48013A7EB8D
:100720000608101BD64608F2FD3873EB050002D30D
:1007300008F1010801E092185B41B8F1000F03DAFB
:1007400000200146BDE8F08D00204FF480110646E0
:1007500084460EE0171B73EB050705D3121B63EBF2
:10076000050306434CEA010C49084FEA3000921891
:100770005B4150EA0107EDD152EA030012D082EA50
:10078000040083EA0501084303D100224FF000432F
:1007900008E0101BAB4102D20122002302E06FF0FF
:1007A000010253101AEB06004CEB085110EB0A0043
:1007B00041EB0B01BDE8F04D00F0A0B9F0B4CA1751
:1007C000CB0F50405140C61851F100004FEAC372A0
:1007D00031464FF0960303D0B623F0BC00F034B995
:1007E00030460021F9E70EB5C10F80EAE0700844F9
:1007F000CA07002140F233438DE80E000A460B463B
:1008000000F089F903B000BD3EB5CA17CB0F002434
:1008100050405140C0186141DA0740F23343009420
:10082000CDE901232246234600F075F903B030BD1F
:1008300010B500F0004420F00040C20DC0F31600D7
:1008400040F400007F2A02DA0020014610BD00219A
:10085000962A03DCC2F19602D04002E0963AFFF7F6
:10086000C2FD002CF2D00023D0EB030063EB0101AA
:1008700010BD70B5C1F30A5201F000450024C1F368
:10088000130140F2FF3341F480119A4201DA002053
:1008900070BD40F233439A42A2F2334203DC52422B
:1008A000FFF7B0FD00E090402C43F1D0404270BD16
:1008B00070B5C1F30A5201F000450024C1F31301E1
:1008C00040F2FF3341F480119A4202DA00200146DF
:1008D00070BD40F233439A42A2F2334203DC5242EB
:1008E000FFF790FD01E0FFF77EFD2C43F0D00023E1
:1008F000D0EB030063EB010170BD00F0004230F06B
:1009000000400AD0C10D01F56071C0F3160042EA43
:100910000151C2084007114370470020014670474B
:1009200030B5002904DB4FF00044404264EB010184
:10093000002B04DB4FF00044524264EB03038B4274
:1009400008BF824230BD000030B5002904DB4FF003
:100950000044404264EB0101002B04DB4FF00044F3
:10096000524264EB0303994208BF904230BD00003D
:1009700001F0004330B421F0004150EA010206D0FA
:100980000A0DA2F56072C1F31301002A02DC30BC2B
:1009900000207047440F44EAC104C100E01830BC95
:1009A00000EBC25000F047B830B50B4601460020BE
:1009B0002022012409E021FA02F59D4205D303FA21
:1009C00002F5491B04FA02F52844151EA2F10102A2
:1009D000F1DC30BD2DE9F05F0546002092469B46D4
:1009E00088460646814640241BE028464146474645
:1009F0002246FFF707FD53465A46C01A914110D3CD
:100A0000114618462246FFF7EEFC2D1A67EB010847
:100A10004F46224601200021FFF7E5FC17EB0009B5
:100A20004E41201EA4F10104DFDC484631462A462F
:100A30004346BDE8F09F0029A8BF7047401C49000D
:100A400008BF20F00100704710B4B0FA80FC00FA33
:100A50000CF050EA010404BF10BC704749B1CCF15E
:100A6000200421FA04F411FA0CF118BF01212143EA
:100A70000843A3EB0C01CB1D0106000A002BBEBFEF
:100A8000002010BC704700EBC35010440029A4BFE5
:100A900010BC7047401C490008BF20F0010010BC8A
:100AA0007047F0B400F0004221F000414FEAD15607
:100AB00020F000404FEAD053C1F31601C0F31600F6
:100AC00041F40001154640F40000C1F10004A6F114
:100AD000010609E010EB440002D582F000424042DA
:100AE0008842F7D85B1E4000B342F9DA18B1F0BC77
:100AF0000021FFF7A9BF2846F0BC704710B5002BB6
:100B000008DA401C41F1000192185B411A4301D1FF
:100B100020F0010010BD2DE9F04D92469B4611B129
:100B2000B1FA81F202E0B0FA80F220329046FFF78B
:100B30005AFC04460F4640EA0A0041EA0B015346BC
:100B40005A46084303D120463946BDE8F08D114688
:100B500053EA010015D0C8F140025046FFF752FC9D
:100B600005460E46504659464246FFF73CFC0843B0
:100B700001D0012000E00020054346EAE0762C4346
:100B800037430A984FEA4453A0EB08004FEAD424B5
:100B90000A304FF0000244EA47544FEAD72502D505
:100BA00000200146D1E7010510196941DDE908453A
:100BB00000196941BDE8F04DA0E72DE9FE4FC3F3F0
:100BC0000A5701F000450024C1F30A56C3F313038A
:100BD000C1F3130143F4801312EB020AA64641F459
:100BE0008011009543EB030CA7F1010B13E0B0EB70
:100BF0000A0071EB0C0107D54FF00008D0EB08009C
:100C000085F0004568EB0101171A73EB0107EED37D
:100C1000761E001849415E45F6DA50EA010204D119
:100C20000099204603B0BDE8F08FCDE900E5002231
:100C300013460296FFF76FFFF4E7C1F30A52C1F3C0
:100C4000130140F2FF3341F480119A4202DA00208E
:100C50000146704740F233439A42A2F2334202DC2B
:100C60005242FFF7CFBBFFF7BEBB0000064C074D5B
:100C700006E0E06840F0010394E80700984710346C
:100C8000AC42F6D3FFF784FA4CC406086CC40608DD
:100C900070B501EB020410F8015B15F0070301D1F8
:100CA00010F8013B2A1106D110F8012B03E010F8CF
:100CB000016B01F8016B5B1EF9D12B0705D40023F2
:100CC000521E0FD401F8013BFAE710F8013B02F184
:100CD0000202A1EB030303E013F8015B01F8015BDF
:100CE000521EF9D5A142D6D3002070BD0FF2060CDA
:100CF000DCF800C06047397C060800000FF2060CE3
:100D0000DCF800C06047B37E060800000FF2060C56
:100D1000DCF800C060470175050800000FF2060C02
:100D2000DCF800C060470175050800000FF2060CF2
:100D3000DCF800C06047B172050800000FF2060C35
:100D4000DCF800C06047C972050800000FF2060C0D
:100D5000DCF800C06047F372050800000FF2060CD3
:100D6000DCF800C06047FF72050800000FF2060CB7
:100D7000DCF800C060470573050800000FF2060CA0
:100D8000DCF800C060470D73050800000FF2060C88
:100D9000DCF800C060471573050800000FF2060C70
:100DA000DCF800C060471D73050800000FF2060C58
:100DB000DCF800C06047E572050800000FF2060C81
:100DC000DCF800C06047ED72050800000FF2060C69
:100DD000DCF800C060478173050800000FF2060CC4
:100DE000DCF800C060471D74050800000FF2060C17
:100DF000DCF800C060473F790608000001B40068D5
:100E00000FF2080C5CF820C001BC6047F57C0608B6
:100E10005B79060801B400680FF2080C5CF820C08A
:100E200001BC6047057D06086B79060801B40068BF
:100E30000FF2080C5CF820C001BC6047157D060865
:100E40007B79060801B400680FF2080C5CF820C03A
:100E500001BC60471D7D06088379060801B400685F
:100E60000FF2080C5CF820C001BC6047257D060825
:100E70008B79060801B400680FF2080C5CF820C0FA
:100E800001BC6047297D06088F7906080FF2060C21
:100E9000DCF800C06047A579060800000FF2060CD8
:100EA000DCF800C06047C179060800000FF2060CAC
:100EB000DCF800C06047097A060800000FF2060C53
:100EC000DCF800C06047997B060800000FF2060CB2
:100ED000DCF800C06047C17B060800000FF2060C7A
:100EE000DCF800C06047D97B060800000FF2060C52
:100EF000DCF800C06047FD7B060800000FF2060C1E
:100F0000DCF800C06047157C060800000FF2060CF4
:100F1000DCF800C06047597C060800000FF2060CA0
:100F2000DCF800C06047797C060800000FF2060C70
:100F3000DCF800C06047AB7C060800000FF2060C2E
:100F4000DCF800C06047B57C060800000FF2060C14
:100F5000DCF800C06047D97C060800000FF2060CE0
:100F6000DCF800C060473D7D060800000FF2060C6B
:100F7000DCF800C06047537D060800000FF2060C45
:100F8000DCF800C06047697D060800000FF2060C1F
:100F9000DCF800C060474574050800000FF2060C3D
:100FA000DCF800C060476D74050800000FF2060C05
:100FB000DCF800C060475D74050800000FF2060C05
:100FC000DCF800C060478574050800000FF2060CCD
:100FD000DCF800C060479B74050800000FF2060CA7
:100FE000DCF800C06047B174050800000FF2060C81
:100FF000DCF800C060470B7E060800000FF2060C0C
:10100000DCF800C060470F7E060800000FF2060CF7
:10101000DCF800C06047E574050800000FF2060C1C
:10102000DCF800C060472B75050800000FF2060CC5
:10103000DCF800C06047C174050800000FF2060C20
:10104000DCF800C06047D974050800000FF2060CF8
:10105000DCF800C060470975050800000FF2060CB7
:10106000DCF800C060472175050800000FF2060C8F
:10107000DCF800C060473975050800000FF2060C67
:10108000DCF800C06047B175050800000FF2060CDF
:10109000DCF800C06047B575050800000FF2060CCB
:1010A000DCF800C06047CD75050800000FF2060CA3
:1010B000DCF800C0604721D1050800000FF2060CE3
:1010C000DCF800C0604749D1050800000FF2060CAB
:1010D000DCF800C0604755D1050800000FF2060C8F
:1010E000DCF800C06047B77E060800000FF2060C6F
:1010F000DCF800C0604759D1050800000FF2060C6B
:10110000DCF800C0604771D1050800000FF2060C42
:10111000DCF800C060478DD1050800000FF2060C16
:10112000DCF800C06047C1D1050800000FF2060CD2
:10113000DCF800C06047D18E060800000168002975
:10114000B4BF4A420A46026002F0EBB9016850F8A7
:10115000042C9142ACBF0B461346036002F0E1B988
:10116000016850F8042C9142B4BF0B46134603604B
:1011700002F0D7B9014900F0EFB80000804900083B
:10118000C7F8088098F80B004FEA10104FEAC0002B
:101190006C46ADEB000D3846214642465BF062FFDF
:1011A000002840F0058008F10D08264900F0D4B869
:1011B000054655F8040B55F8041B55F8042B55F853
:1011C000043BAD46B8F80090B8F802C049EA0C4CB0
:1011D000E047A546D7F814C0BCF1000F00F0068028
:1011E00008F10D0800F0B0B800F02CB898F80CC069
:1011F0000CF00F06002E00F02180062E40F0078034
:101200000B46024638465CF0E9FF00F017B8082E9E
:1012100040F007800B46024638465CF041FF00F084
:101220000DB8092E40F00680014638465CF0E8FF14
:1012300000F004B8014638465CF0BFFF08F10D0825
:1012400002F06FB9B047000838465DF0A9F80128F0
:1012500040F0048002F065B900F002B802F05BB91A
:10126000FFF7F2BF08F1FF38C7F808805BF0BEFE59
:10127000B84200F00880002840F0028002F057B920
:10128000074602F048B902F04CB9000018F9013BDA
:1012900018F9011B18F9012B5BF8230000F03EBA86
:1012A00018F9010B18F9011B0AEB80005BF82110FB
:1012B000002940F003800D4900F04EB8C7F80880BF
:1012C0005CF0E8FF012840F00380094900F044B8D1
:1012D000032840F00380074900F03EB8022840F0A0
:1012E0000380054900F038B802F015B9D04600086F
:1012F00030480008B0470008F0470008C7F80880E9
:101300005AF098FE02F007B918F9010B0AEB8001B8
:101310003846C7F808805AF0C3FE02F0FCB8000057
:1013200018F9010B5BF82010002940F003800549F3
:1013300000F012B83846C7F808805AF0DDFE02F017
:10134000EAB80000D0460008C7F8088038465CF0CC
:1013500079FA02F0E0B80000C7F8088038465CF07F
:1013600062FFFFF7F1BF000008F1010818F8014B18
:10137000D7F8985055F824F008F1010818F8014BF7
:10138000D7F8985055F824F05146B1F9002012F4DE
:10139000005340F00E809244B1F902209344D1F8FA
:1013A0000480C7F800A0C7F804B0C7F8088000F0B0
:1013B0000BB8ABEB000138465CF078FAD7F800A028
:1013C000D7F804B0D7F80880DAF8082092F9063088
:1013D000002B40F30480ABEB83042568FD6092F999
:1013E00008200BEB82014FF00002884280F204805B
:1013F00040F8042BFFF7F9BF02F093B85846FFF707
:10140000C3BF0000ABF10800FFF7BEBFABF10400A3
:10141000FFF7BABF18F9012B0BEB8200FFF7B4BF3F
:1014200038F8020B38F8021B40EA01415A46D7F857
:101430000C905346C2F80090C7F8088038465CF01C
:10144000C9FA02F068B8000018F8012B5B46F96889
:101450005446CBF80010C7F8088038464DF8044DC4
:101460005CF00CFE01B002F056B8000018F9012B38
:1014700018F9011B38F8024B38F8025B0BEB8101BD
:101480000AEB82020B68002B40F003800749FFF74C
:1014900063BFC7F80880FB6038464DF8045D4DF81F
:1014A000044D5CF0B1FD02B002F035B8D046000842
:1014B00038F8020B38F8021B40EA01414FF00009EE
:1014C000C7F80C905A465346C7F8088038465CF077
:1014D00081FA02F020B8000018F9013B18F9012B3D
:1014E00038F8020B38F8021B40EA01414FF00009BE
:1014F000C7F80C900BEB82020AEB8303C7F8088055
:1015000038465CF067FA02F006B8000038F8020BC3
:1015100038F8021B40EA01415A465346D2F800907F
:10152000B9F1000F40F003800549FFF715BFC7F878
:101530000880C7F80C9038465CF04CFA01F0EBBF1D
:10154000D046000818F9013B18F9012B38F8020BB6
:1015500038F8021B40EA01410BEB82020AEB8303DD
:10156000D2F80090B9F1000F40F003800549FFF771
:10157000F3BEC7F80880C7F80C9038465CF02AFA2A
:1015800001F0C9BFD046000818F9014B18F9013B1A
:1015900038F9022B0BEB83030AEB8404196800294A
:1015A00040F003800649FFF7D7BEC7F80880F9600E
:1015B00038464DF8044D5CF049FD01B001F0ABBF79
:1015C000D046000818F8012B5B46544619680029DC
:1015D00040F003800649FFF7BFBEC7F80880F960F6
:1015E00038464DF8044D5CF049FD01B001F093BF61
:1015F000D046000818F9014B18F9013B38F9022BC5
:101600000BEB83030AEB84041968002940F0038084
:101610000649FFF7A1BEC7F80880F96038464DF8C3
:10162000044D5CF02BFD01B001F075BFD046000801
:1016300038F8021B38F8022B41EA02413846C7F855
:10164000088001F05DBC000018F8010BA8EB000851
:1016500001F067BF38F8020BA8EB000801F061BF8A
:10166000002B40F003800B49FFF776BE5AF822109A
:101670000029C0F20C805C6803F10803A14280F2EB
:10168000068053F821204BF8202001F04ABF024980
:10169000FFF762BED04600081047000818F9011B8A
:1016A0004FEA21104FEA01714FEA21725BF8043CC6
:1016B000FFF7D6BF18F9010B18F9011B18F9012B18
:1016C0005BF82130FFF7CCBF18F9010B18F9011BAB
:1016D00018F8012B01F030BC18F9010B18F9011BA7
:1016E00018F8012B18F8013B42EA032201F024BC50
:1016F000034B53F821404BF8204001F012BF00008B
:10170000C84A002018F9010B18F8011BFFF7F0BFB9
:1017100018F9010B38F8021BFFF7EABF5BF82260EB
:10172000002840F003800F49FFF716BE5AF82150F9
:10173000002DC0F21380436800F108049D4280F23E
:101740000D8031465AF0AEFF002840F00380064974
:10175000FFF702BE44F8256001F0E3BE0349FFF73E
:10176000FBBD0000D04600085047000810470008A5
:1017700018F9012B4FEA22114FEA02724FEA227246
:101780005BF8080CFFF7CABF18F9010B18F9011B29
:1017900018F8012B01F0E2BB18F9010B18F9011B35
:1017A00018F8012B18F8013B42EA032201F0D6BBDE
:1017B0005BF82000024B43F8210001F0B2BE0000AC
:1017C000C84A002018F9010B18F8011BFFF7F0BFF9
:1017D00018F9010B38F8021BFFF7EABFF968C7F8E0
:1017E000088038465DF03EF801F095BEF968C7F80C
:1017F000088038465DF080F801F08DBE18F9011BB5
:101800005BF82110002940F003800549FFF7A4BDD3
:10181000C7F8088038465DF025F801F07CBE00006E
:10182000D046000818F9011B5BF82110002940F090
:1018300003800549FFF790BDC7F8088038465DF082
:101840005BF801F068BE0000D046000818F9010BF3
:1018500018F9011B18F8012B01F0A2BB18F9010BB4
:1018600018F9011B18F8012B18F8013B42EA032272
:1018700001F096BB5BF82110002940F00380044979
:10188000FFF76ABD5AF820308B5001F04ABE0000C5
:10189000D046000818F9010B18F9011B18F8012BA4
:1018A000FFF7E8BF18F9010B18F9011B18F8012B15
:1018B00018F8013B42EA0322FFF7DCBF5BF8211076
:1018C000002940F003800449FFF746BD5AF8203054
:1018D0008B5201F026BE0000D046000818F9010B1B
:1018E00018F9011B18F8012BFFF7E8BF18F9010BD5
:1018F00018F9011B18F8012B18F8013B42EA0322E2
:10190000FFF7DCBF5BF82110002940F00380044999
:10191000FFF722BD5AF820308B5401F002BE0000C0
:10192000D046000818F9010B18F9011B18F8012B13
:10193000FFF7E8BF18F9010B18F9011B18F8012B84
:1019400018F8013B42EA0322FFF7DCBF18F9011B3C
:101950004FEA211001F00F01D7F80C905AF820201F
:1019600049F8212001F0DDBD18F9011B4FEA2110D3
:1019700001F00F014FEA4101D7F80C905AF82020EE
:1019800029F8012001F0CDBD18F9011B4FEA211003
:1019900001F00F01D7F80C905AF8202009F8012027
:1019A00001F0BFBD18F9010B18F9011B18F8012B44
:1019B00001F022BB18F9010B18F9011B18F8012BD3
:1019C00018F8013B42EA032201F016BB5BF8211034
:1019D000002940F003800449FFF7BEBC8B584AF849
:1019E000203001F09EBD0000D046000818F9010B20
:1019F00018F9011B18F8012BFFF7E8BF18F9011BB4
:101A00004FEA21104FEA01714FEA21714FF00402B1
:101A1000FFF7DCBF18F9010B18F9011B18F8012BAF
:101A200018F8013B42EA0322FFF7D0BF5BF8211010
:101A3000002940F003800449FFF78EBC8B5A4AF816
:101A4000203001F06EBD0000D046000818F9010BEF
:101A500018F9011B18F8012BFFF7E8BF18F9010B63
:101A600018F9011B18F8012B18F8013B42EA032270
:101A7000FFF7DCBF5BF82110002940F00380044928
:101A8000FFF76ABC8B5E4AF8203001F04ABD0000C7
:101A9000D046000818F9010B18F9011B18F8012BA2
:101AA000FFF7E8BF18F9010B18F9011B18F8012B13
:101AB00018F8013B42EA0322FFF7DCBF5BF8211074
:101AC000002940F003800449FFF746BC8B564AF8D2
:101AD000203001F026BD0000D046000818F9010BA7
:101AE00018F9011B18F8012BFFF7E8BF18F9010BD3
:101AF00018F9011B18F8012B18F8013B42EA0322E0
:101B0000FFF7DCBF18F9011B4FEA211001F00F01AC
:101B1000D7F80C9059F821204AF8202001F001BD97
:101B200018F9011B4FEA211001F00F014FEA4101A2
:101B3000D7F80C9039F801204AF8202001F0F1BCC8
:101B400018F9011B4FEA211001F00F014FEA410182
:101B5000D7F80C9039F901204AF8202001F0E1BCB7
:101B600018F9011B4FEA211001F00F01D7F80C9072
:101B700019F901204AF8202001F0D3BC18F9010B13
:101B800018F9011B5BF82120002A40F0038004496A
:101B9000FFF7E2BB51684AF8201001F0C2BC000018
:101BA000D04600085AF82220002B40F003800A4952
:101BB000FFF7D2BB5AF821000028C0F20A805C6807
:101BC00003F10803A04280F2048043F8202001F0D2
:101BD000A8BC0249FFF7C0BBD04600081047000868
:101BE00018F9012B4FEA22114FEA02724FEA2272D2
:101BF0005BF8043CFFF7D6BF18F9010B18F9011B7D
:101C000018F9012B5BF82030FFF7CCBF18F9010B56
:101C100018F9011B18F9012B5AF822205BF8203023
:101C2000002B40F003800B49FFF796BB5AF82100C8
:101C30000028C0F20B805C6803F10803A04280F228
:101C400005804FEA40001A5201F06BBC0249FFF7D1
:101C500083BB0000D04600081047000818F9010BAC
:101C600018F9011B18F9012B5AF822205BF82030D3
:101C7000002B40F003800A49FFF76EBB5AF82100A1
:101C80000028C0F209805C6803F10803A04280F2DA
:101C900003801A5401F045BC0249FFF75DBB000008
:101CA000D046000810470008002B40F003800B4985
:101CB000FFF752BB5AF822100029C0F20C805C6872
:101CC00003F10803A14280F2068053F821204AF86C
:101CD000202001F026BC0249FFF73EBBD046000899
:101CE0001047000818F9011B4FEA21104FEA017153
:101CF0004FEA21725BF8043CFFF7D6BF18F9010BDD
:101D000018F9011B18F9012B5BF82130FFF7CCBF44
:101D100018F9010B18F9011B18F9012B5BF8213098
:101D2000002B40F003800C49FFF716BB5AF8221035
:101D30000029C0F20D805C6803F10803A14280F223
:101D400007804FEA41015A5A4AF8202001F0E9BBC6
:101D50000249FFF701BB0000D04600081047000809
:101D600018F9010B18F9011B18F9012B5BF8213048
:101D7000002B40F003800C49FFF7EEBA5AF822100E
:101D80000029C0F20D805C6803F10803A14280F2D3
:101D900007804FEA41015A5E4AF8202001F0C1BB9A
:101DA0000249FFF7D9BA0000D04600089048000861
:101DB00018F9010B18F9011B18F9012B5BF82130F8
:101DC000002B40F003800B49FFF7C6BA5AF82210E7
:101DD0000029C0F20B805C6803F10803A14280F285
:101DE00005805A564AF8202001F09BBB0249FFF7B4
:101DF000B3BA0000D04600081047000818F9016B7C
:101E000018F9013B38F8024B38F8025B44EA054008
:101E10005BF82310002940F004804FF0000000F030
:101E200002B85AF04DFC4AF8260001F07ABB0000D7
:101E300018F9012B38F8023B38F8024B43EA04400A
:101E40005BF82210002900F008805AF039FC0028C5
:101E500040F003800249FFF77FBA01F062BB000047
:101E600090480008002940F003800349FFF774BA46
:101E70007961FFF769BA0000D04600085BF8041CDE
:101E8000FFF7F0BF18F9010B5BF82010FFF7EABF6E
:101E900018F9015B18F9013B18F8012B38F8020B0F
:101EA00038F8021B40EA01414DF8044D4DF8045D3D
:101EB00038465BF00FFC02B0002840F00280FFF7CC
:101EC00043BA01F02EBB000018F9014B18F9015B71
:101ED0005AF82550002D80F203800649FFF73CBADE
:101EE0004FEAC50038F8021B38F8022B41EA0241DC
:101EF00001F062B93047000818F9014B18F9015B8D
:101F00005AF82550002D80F203800649FFF724BAC5
:101F10004FEA850038F8021B38F8022B41EA0241EB
:101F200001F04AB93047000818F9014B18F9015B74
:101F30005AF82550002D80F203800649FFF70CBAAD
:101F40004FEA450038F8021B38F8022B41EA0241FB
:101F500001F032B93047000818F9014B18F9015B5C
:101F60005AF82550002D80F203800649FFF7F4B996
:101F7000284638F8021B38F8022B41EA024101F0EA
:101F80001BB900003047000818F9014B38F8020B64
:101F900038F8021B40EA014101F026B9FFF7F4BF0F
:101FA00038F8024B38F8025B44EA05414FF0FF3441
:101FB00001F01AB918F9010B18F8011B01F026B944
:101FC00018F9010B38F8021B01F020B95AF820006B
:101FD000024B43F8210001F0A4BA0000844A00201B
:101FE00018F9010B18F8011BFFF7F0BF18F9010BE6
:101FF00038F8021BFFF7EABF5AF82000024B4FEAFD
:102000004101585201F08DBA824A002018F9010BA3
:1020100018F8011BFFF7F0BF18F9010B38F8021B85
:10202000FFF7EABF5AF82000014B585401F079BA83
:10203000804A002018F9010B18F8011BFFF7F2BFC6
:1020400018F9010B38F8021BFFF7ECBF18F9010B68
:1020500018F8011B01F0EAB818F9010B38F8021B57
:1020600001F0E4B8034B53F821404AF8204001F056
:1020700058BA0000844A002018F9010B18F8011B17
:10208000FFF7F0BF18F9010B38F8021BFFF7EABFA2
:10209000034B4FEA41015C5A4AF8204001F041BA33
:1020A000824A002018F9010B18F8011BFFF7F0BF56
:1020B00018F9010B38F8021BFFF7EABF034A4FEA91
:1020C0004101545E4AF8204001F02BBA824A0020B8
:1020D00018F9010B18F8011BFFF7F0BF18F9010BF5
:1020E00038F8021BFFF7EABF024A54564AF820406C
:1020F00001F017BA804A002018F9010B18F8011BEB
:10210000FFF7F2BF18F9010B38F8021BFFF7ECBF1D
:1021100018F9010B18F9011B18F9014B0AEB80059E
:102120000AEB810655F8040B55F8041B56F8042BEE
:1021300056F8043B80EA020081EA03010AEB8404BA
:1021400044F8040B44F8041B01F0EBB918F9010B37
:1021500018F9011B18F9012B5AF820305AF82140C0
:1021600083EA04004AF8220001F0DBB918F9010BF8
:1021700018F9011B18F9014B0AEB80050AEB8106DF
:1021800055F8040B55F8041B56F8042B56F8043B7D
:1021900040EA020041EA03010AEB840444F8040B1C
:1021A00044F8041B01F0BDB918F9010B18F9011B23
:1021B00018F9012B5AF820305AF8214043EA04005C
:1021C0004AF8220001F0ADB918F9010B18F9011B0A
:1021D00018F9014B0AEB80050AEB810655F8040B50
:1021E00055F8041B56F8042B56F8043B00EA02008D
:1021F00001EA03010AEB840444F8040B44F8041BCD
:1022000001F08FB918F9010B18F9011B18F9012B0E
:102210005AF8203003EA01004AF8220001F081B99F
:1022200018F9010B18F9011B18F9012B5AF8203085
:102230005AF8214003EA04004AF8220001F071B97B
:1022400018F9010B18F9011B18F9014B5AF8212054
:102250000AEB800555F8040B55F8041B5AF04EF8AC
:102260000AEB840444F8040B44F8041B01F059B948
:1022700018F9010B18F9011B18F9012B5AF8203035
:102280005AF8214004F01F0423FA04F04AF822000F
:1022900001F047B918F9010B18F9011B18F9014BA6
:1022A0005AF821200AEB800555F8040B55F8041B59
:1022B0005AF028F80AEB840444F8040B44F8041B91
:1022C00001F02FB918F9010B18F9011B18F9012BAE
:1022D0005AF8203043FA01F04AF8220001F021B9FF
:1022E00018F9010B18F9011B18F9012B5AF82030C5
:1022F0005AF8214004F01F0443FA04F04AF822007F
:1023000001F00FB918F9010B18F9011B18F9014B6D
:102310005AF821200AEB800555F8040B55F8041BE8
:1023200059F0F4FF0AEB840444F8040B44F8041B4E
:1023300001F0F7B818F9010B18F9011B18F9012B76
:102340005AF8203003FA01F04AF8220001F0E9B807
:1023500018F9010B18F9011B18F9012B5AF8203054
:102360005AF8214004F01F0403FA04F04AF822004E
:1023700001F0D7B818F9014B18F9015B0AEB840496
:102380004FF000004FF0000154F8042B54F8043BC8
:102390005AF0BCF80AEB850545F8040B45F8041B18
:1023A00001F0BFB818F9011B18F9014B4FF00000FC
:1023B0005AF821105AF0F4F84AF8240001F0B1B8A4
:1023C00018F9010B18F9011B5AF82020C2F100007E
:1023D0004AF8210001F0A5B818F9010B18F9011B02
:1023E00018F9016B0AEB80040AEB810554F8040B21
:1023F00054F8041B55F8042B55F8043B59F08AFF98
:102400000AEB860646F8040B46F8041B01F089B86F
:1024100018F9010B18F9011B18F9014B5AF82000A3
:102420005AF8211059F096FF4AF8240001F079B8C3
:1024300018F9010B18F9011B18F9016B0AEB80045C
:102440000AEB810554F8040B54F8041B55F8042BCF
:1024500055F8043B002A40F00680002B40F0038032
:102460000649FEF779BF59F089FF0AEB860646F860
:10247000040B46F8041B01F054B800005048000853
:1024800018F9010B18F9011B18F9014B5AF8200033
:102490005AF82110002940F003800449FEF75CBF80
:1024A00059F072FF4AF8240001F03BB85048000888
:1024B00018F9010B18F9011B18F9016B0AEB8004DC
:1024C0000AEB810554F8040B54F8041B55F8042B4F
:1024D00055F8043B59F05EFF0AEB860646F8040BFC
:1024E00046F8041B01F01DB818F9010B18F9011B7F
:1024F00018F9014B5AF820005AF8211059F0A6FF9C
:102500004AF8240001F00DB818F9010B18F9011B65
:1025100018F9016B0AEB80040AEB810554F8040BEF
:1025200054F8041B55F8042B55F8043B002A40F0DE
:102530000680002B40F003800649FEF70DBF59F0DE
:10254000A1FF0AEB860646F8040B46F8041B00F0D0
:10255000E8BF00005048000818F9010B18F9011BEA
:1025600018F9014B5AF82000002940F00380044973
:10257000FEF7F2BE59F08AFF4AF8240000F0D1BFFE
:102580005048000818F9010B18F9011B18F9014B04
:102590005AF820005AF82110002940F0038004491D
:1025A000FEF7DABE59F072FF4AF8240000F0B9BF16
:1025B0005048000818F9010B18F9011B18F9016BB4
:1025C0000AEB80040AEB810554F8040B54F8041B51
:1025D00055F8042B55F8043B59F05CFF0AEB8606CE
:1025E00046F8040B46F8041B00F09BBF18F9010BDA
:1025F00018F9011B18F9014B5AF820005AF821105C
:1026000059F068FF4AF8240000F08BBF18F9010B5D
:1026100018F9011B18F9012B0AEB80000AEB810164
:1026200050F8043B50F8044B51F8045B51F8046B2C
:10263000A3FB050103FB061104FB05110AEB820253
:1026400042F8040B42F8041B00F06BBF18F9010BB1
:1026500018F9011B18F9012B5AF8203003FB01F07F
:102660004AF8220000F05DBF18F9010B18F9011BB0
:1026700018F9012B5AF820305AF8214003FB04F0D6
:102680004AF8220000F04DBF18F9010B18F9011BA0
:1026900018F9016B0AEB80040AEB810554F8040B6E
:1026A00054F8041B55F8042B55F8043B59F02EFF41
:1026B0000AEB860646F8040B46F8041B00F031BF0F
:1026C00018F9010B18F9011B18F9014B5AF82000F1
:1026D0005AF8211059F064FF4AF8240000F021BF95
:1026E00018F9010B18F9011B18F9012B0AEB8000EE
:1026F0000AEB810150F8043B50F8044B51F8045B9D
:1027000051F8046B5B1B64EB06040AEB820242F88F
:10271000043B42F8044B00F004BF000018F9010B21
:1027200018F9011B18F9012B5AF820305AF82140EA
:10273000A3EB04034AF8223000F0F3BE18F9010BB2
:1027400018F9011B18F9016B0AEB80040AEB8105EB
:1027500054F8040B54F8041B55F8042B55F8043BAB
:1027600059F03AFF0AEB860646F8040B46F8041BBC
:1027700000F0D7BE18F9010B18F9011B18F9014B2D
:102780005AF820005AF8211059F070FF4AF8240036
:1027900000F0C7BE18F9010B18F9011B18F9012B3D
:1027A0000AEB80000AEB810150F8043B50F8044B1F
:1027B00051F8045B51F8046B5B1944EB06040AEB17
:1027C000820242F8043B42F8044B00F0AABE00002B
:1027D00018F9010B18F9011B18F9012B5AF8200000
:1027E00008444AF8220000F09CBE000018F9010BD2
:1027F00018F9011B18F9012B5AF820005AF821107A
:1028000008444AF8220000F08CBE000018F9010BC1
:102810005AF8201001F1FF314AF8201000F081BE73
:1028200018F9010B5AF8201001F101014AF82010A3
:1028300000F077BE18F9010B18F9011B5AF8212096
:1028400002444AF8212000F06CBE000018F9014B48
:1028500018F9015B18F9016B0AEB84040AEB850592
:1028600054F8040B54F8041B55F8042B55F8043B9A
:1028700059F088FC4AF8260000F053BE18F9014BC5
:1028800018F9015B18F9016B0AEB84040AEB850562
:1028900054F8040B54F8041B55F8042B55F8043B6A
:1028A00059F096FC4AF8260000F03BBE18F9012BBF
:1028B00018F9013B18F9014B5AF822005AF8231075
:1028C00059F0ADFC4AF8240000F02BBE18F9012B9A
:1028D00018F9013B18F9014B5AF822005AF8231055
:1028E00059F0C1FC4AF8240000F01BBE18F9014B56
:1028F00018F9012B4FEAE27318F9015B0AEB840423
:1029000054F8040B54F8041B59F0D2FC4AF8250083
:1029100000F007BE18F9014B18F9015B18F9016BBB
:102920000AEB84040AEB850554F8040B54F8041BE5
:1029300055F8042B55F8043B59F0BAFC4AF8260028
:1029400000F0EFBD38F8020B804400F0EABD000053
:1029500018F8010B804400F0E4BD000018F9040BE6
:102960004FEA98084FEA880858F8042B58F8043BB7
:1029700038F8021B5AF82000984200F30C8090426D
:10298000C0F20980A0EB02004FEA400038F80000D6
:10299000804400F0C6BD884400F0C3BD18F9082B80
:1029A0004FEA98014FEA810131F8040C5AF82220CD
:1029B00059F0CAFB804600F0B4BD000018F9014B85
:1029C00018F9013B0AEB83031868596859F0E8FECF
:1029D0004AF8240000F0A5BD18F9014B18F9013B95
:1029E0005AF8230059F005FF4AF8240000F099BD79
:1029F00018F9014B18F9013B0AEB83031868596871
:102A000059F065FC4AF8240000F08BBD18F9014B21
:102A100018F9013B5AF8230059F05BFC0AEB8404D7
:102A20002060616000F07DBD18F9014B18F9013B91
:102A30000AEB83031868596859F04FFC0AEB8404C9
:102A40002060616000F06DBD18F9014B18F9013B81
:102A50005AF8230059F045FC0AEB840420606160B9
:102A600000F05FBD18F9014B18F9013B0AEB830335
:102A70001868596859F039FC4AF8240000F051BD33
:102A800018F9014B18F9013B5AF8230059F02FFCB3
:102A90004AF8240000F045BD18F9014B18F9013B34
:102AA0000AEB83031868596859F08EFE0AEB840418
:102AB0002060616000F035BD18F9014B18F9013B49
:102AC0005AF8230059F0A1FE0AEB840420606160EB
:102AD00000F027BD18F9010B18F9011B5AF8212045
:102AE0004FEAE2730AEB80000260436000F019BD18
:102AF00018F9010B18F9011B5AF821204FEA02427C
:102B00004FEA12424AF8202000F00BBD18F9010BE1
:102B100018F9011B5AF821204FEA02424FEA2242DB
:102B20004AF8202000F0FDBC18F9010B18F9011B30
:102B30005AF821204FEA02624FEA22624AF8202026
:102B400000F0EFBC4FF000004AF8040C00F0E9BCC4
:102B50004FF00000CAF80C0000F0E3BC18F9010BBC
:102B60004FF001014AF8201000F0DBBC18F9010B0E
:102B70004FF000014AF8201000F0D3BC5BF8080CBD
:102B8000CBF8000000F0CDBC5BF8040CCBF80000E3
:102B900000F0C7BC18F9010B4FF000014BF82010F2
:102BA00000F0BFBC38F8021B38F8022B18F9010BF3
:102BB00041EA02414BF8201000F0B3BC18F9010BB8
:102BC00038F8021B38F8022B41EA02414BF820107A
:102BD00000F0A7BC98F908000AEB800038F8021B47
:102BE00038F8022B41EA024140F8041B38F8021B76
:102BF00038F8032B41EA0241016000F092BC00006A
:102C000018F9010B0AEB800038F8021B38F8022B88
:102C100041EA024140F8041B38F8021B38F8022B45
:102C200041EA0241016000F07CBC000018F9010B90
:102C300018F9011B4FEAE1720AEB80000160426063
:102C400000F06FBC38F8021B38F8022B18F9010BA2
:102C500041EA02414AF8201000F063BC18F9010B68
:102C600038F8021B38F8022B41EA02414AF82010DA
:102C700000F057BC38F9021B18F9010B4AF8201074
:102C800000F04FBC18F9010B38F9021B4AF820106C
:102C900000F047BC18F9010B18F9011B4AF8201085
:102CA00000F03FBC18F9010B18F9011B5BF821205B
:102CB0004BF8202000F035BC18F9011B4FEA211019
:102CC0004FEA01714FEA21715BF821204BF8202077
:102CD00000F027BC18F9010B18F9011B0AEB800062
:102CE0000AEB81010A684B680260436000F019BC7E
:102CF00018F9010B18F9011B5AF821204AF8202075
:102D000000F00FBC18F9011B4FEA21104FEA0171C6
:102D10004FEA21715AF821204AF8202000F001BC26
:102D200018F8014BD7F8985055F824F0FFF7F8BF82
:102D300018F9010B18F8011B5BF82020002A18BFB6
:102D4000A8EB010800F0EDBB18F9010B18F8011B06
:102D50005BF82020002A08BFA8EB010800F0E1BBC7
:102D600018F9010B18F9011B38F8022B5BF8203019
:102D70005BF82140A34218BFA8EB020800F0D1BBCA
:102D800018F9010B18F9011B38F8022B5BF82030F9
:102D90005BF82140A34208BFA8EB020800F0C1BBCA
:102DA00018F9011B4FEA21104FEA01714FEA217116
:102DB00018F8012B5AF820305AF82140A342D8BF06
:102DC000A8EB020800F0ADBB18F9010B18F9011BC4
:102DD00038F8022B5AF820305AF82140A342D8BFC5
:102DE000A8EB020800F09DBB18F9011B4FEA211067
:102DF0004FEA01714FEA217118F8012B5AF820307F
:102E00005AF82140A342B8BFA8EB020800F089BBE2
:102E100018F9010B18F9011B38F8022B5AF8203069
:102E20005AF82140A342B8BFA8EB020800F079BBD2
:102E300018F9010B18F9011B38F8022B5AF8203049
:102E40005AF82140A34218BFA8EB020800F069BB62
:102E500018F9010B18F9011B38F8022B5AF8203029
:102E60005AF82140A34208BFA8EB020800F059BB62
:102E700018F9010B18F8011B5AF82020002AC8BFC6
:102E8000A8EB010800F04DBB18F9010B18F8011B65
:102E90005AF82020002AA8BFA8EB010800F041BB87
:102EA00018F9010B18F8011B5AF82020002AD8BF86
:102EB000A8EB010800F035BB18F9010B18F8011B4D
:102EC0005AF82020002AB8BFA8EB010800F029BB5F
:102ED00018F9010B18F8011B5AF82020002A18BF16
:102EE000A8EB010800F01DBB18F9010B18F8011B35
:102EF0005AF82020002A08BFA8EB010800F011BBF7
:102F000088477869002840F0048000F004BB00F096
:102F100002B8FEF719BA000018F9011B4FEA211098
:102F200001F00F01D7F80C90C1F1000459F82420EA
:102F30004BF8202000F0F5BA5BF82130002B40F070
:102F400003800549FEF708BAC2F1000419594BF88D
:102F5000201000F0E6BA0000D04600085BF821100F
:102F6000002940F003800549FEF7F6B95BF82030F0
:102F7000C2F100028B5000F0D4BA0000D046000825
:102F800018F9011B4FEA211001F00F01D7F80C903E
:102F90005BF82020C1F1000449F8242000F0C1BAF8
:102FA0005BF82110002940F003800749FEF7D4B9EF
:102FB0000AEB800050F8043B50F8044B53500A448D
:102FC000546000F0AEBA0000D046000818F9011BAA
:102FD0004FEA211001F00F010AEB800050F8042B9A
:102FE00050F8043BD7F80C9049F8212009EB8109EF
:102FF000C9F8043000F095BA5BF82110002940F0C0
:1030000003800749FEF7A8B98B5811444C680AEBB6
:10301000800040F8043B40F8044B00F082BA000006
:10302000D046000818F9011B4FEA211001F00F01EA
:10303000D7F80C9059F8212009EB8109D9F8043010
:103040000AEB800040F8042B40F8043B00F069BA1A
:1030500018F9011B4FEA21104FEA01714FEA217163
:1030600018F8012B5BF820305BF82140A34218BF11
:10307000904400F056BA000018F9010B18F9011B32
:1030800038F8022B5BF820305BF82140A34218BFD0
:10309000904400F046BA000018F9011B4FEA2110D5
:1030A0004FEA01714FEA217118F8012B5BF82030CB
:1030B0005BF82140A34208BF904400F032BA000000
:1030C00018F9010B18F9011B38F8022B5BF82030B6
:1030D0005BF82140A34208BF904400F022BA0000F0
:1030E00018F9010B18F9011B18F9012B0AEB8202E0
:1030F00052F8045B52F8046B5BF82030002B40F070
:1031000003800C49FEF728B95AF821000028C0F2C4
:103110000D805C6803F10803A04280F2078043F849
:10312000305003EBC0035E6000F0FBB90249FEF7CC
:1031300013B90000D04600081047000818F9010B29
:1031400018F9011B18F9012B5BF82130002B40F016
:1031500003800F49FEF700B95AF822100029C0F287
:1031600013805C6803F10803A14280F20D8053F8DC
:10317000315003EBC1035E680AEB800040F8045B4A
:1031800040F8046B00F0CDB90249FEF7E5B8000045
:10319000D04600081047000838F8022B38F8023BE8
:1031A00018F9010B18F9011B0AEB80000BEB8101E8
:1031B00042EA0344A7460000D7F87C90024609483B
:1031C000006833464DF8045DC84701B0002840F060
:1031D0000480FEF7B9B800F004B84BF8240000F002
:1031E000A0B90000DC010020BB6F074800689847C9
:1031F000002840F00480FEF7A7B800F004B84BF8B0
:10320000240000F08EB90000DC0100200AEB8000F1
:1032100050F8044B50F8043B034D45F8314005EBA2
:10322000C1056B6000F07DB9C84A0020064B53F819
:10323000314003EBC1035D680AEB800040F8044BAA
:1032400040F8045B00F06DB9C84A002018F9010B82
:103250000AEB800050F8042B04680260234640F813
:10326000043C00F05EB9000018F9010B18F9011BCD
:103270000AEB800050F8042B50F8043B544263EBF7
:1032800043050AEB810141F8044B41F8045B00F06F
:1032900048B9000018F8010B5BF8041C002918BF9E
:1032A000804400F03EB9000018F8010B5BF8041CE4
:1032B000002908BF804400F034B9000018F9010B60
:1032C00018F8011B5BF82020002A18BF884400F082
:1032D00028B9000018F9010B18F8011B5BF8202031
:1032E000002A08BF884400F01CB9000018F9011B2F
:1032F0004FEA21104FEA01714FEA217118F8012BB2
:103300005AF820305AF82140A342D8BF904400F028
:1033100008B9000018F9010B18F9011B38F8022B45
:103320005AF820305AF82140A342D8BF904400F008
:10333000F8B8000018F9011B4FEA21104FEA01719B
:103340004FEA217118F8012B5AF820305AF8214021
:10335000A342B8BF904400F0E4B8000018F9010B94
:1033600018F9011B38F8022B5AF820305AF821407E
:10337000A342B8BF904400F0D4B8000018F9011B74
:103380004FEA21104FEA01714FEA217118F8012B21
:103390005AF820305AF82140A34218BF904400F058
:1033A000C0B8000018F9010B18F9011B38F8022BFE
:1033B0005AF820305AF82140A34218BF904400F038
:1033C000B0B8000018F9011B4FEA21104FEA017153
:1033D0004FEA217118F8012B5AF820305AF8214091
:1033E000A34208BF904400F09CB8000018F9010BFC
:1033F00018F9011B38F8022B5AF820305AF82140EE
:10340000A34208BF904400F08CB8000018F9010BEB
:1034100018F9011B18F8012B5AF820308B42D8BF3D
:10342000904400F07EB8000018F9010B18F9011B58
:1034300018F8012B5AF820308B42A8BF904400F0B6
:1034400070B8000018F9010B18F9011B18F8012BCE
:103450005AF820308B4218BF904400F062B8000048
:1034600018F9010B18F9011B18F8012B5AF8203034
:103470008B4208BF904400F054B8000018F9010BCB
:1034800018F8011B5AF82020002AC8BF884400F011
:1034900048B8000018F9010B18F8011B5AF8202051
:1034A000002AA8BF884400F03CB8000018F9010BBE
:1034B00018F8011B5AF82020002AD8BF884400F0D1
:1034C00030B8000018F9010B18F8011B5AF8202039
:1034D000002AB8BF884400F024B8000018F9010B96
:1034E00018F8011B5AF82020002A18BF884400F061
:1034F00018B8000018F9010B18F8011B5AF8202021
:10350000002A08BF884400F00CB8000059F000FE03
:103510002DE9F05F0746D7F80880D7F800A0D7F864
:1035200004B018F8014B034D2D6855F824F0BDE8A0
:10353000F05F704754010020000000000000000010
:10354000F21000815C61000820050400985D00080D
:1035500000000000104D00081C00140000000000D6
:10356000F41000816C61000820020700CC4F0008B5
:1035700000000000E84D00080C00040000000000FE
:10358000F41003817C61000820013A00C45D00084A
:1035900000000000484F000818000C000000000068
:1035A000F31000818C6100082802060078500008A2
:1035B00000000000B05D000844000800FC7F000827
:1035C000F41001819C61000830031A007C5D000842
:1035D000000000008C5D00080C0008009039010814
:1035E000F5100081AC6100082801A500C45D000849
:1035F00000000000985C0008040000008839010801
:10360000F7100081BC61000830014C00C45D000867
:1036100000000000844F0008040000008839010801
:10362000F6100081CC61000830044B001C5D0008DE
:10363000000000008C5D00080C00080090390108B3
:10364000F3100081DC61000820014800C45D00081F
:1036500000000000844F0008180004000000000073
:10366000F7100281EC61000820069200985D0008C6
:1036700000000000344D000824001C000000000081
:10368000F3100381FC610008300439001C5D000860
:10369000000000008C5D00080C0008009039010853
:1036A000F81002810C620008200466001C5D00080E
:1036B000000000008C5D00080C0008009039010833
:1036C000F61003811C62000830013C00C45D000854
:1036D00000000000BC520008040000008839010806
:1036E000F51003815C62000820013B00C45D000806
:1036F000684D0008BC5200080800040000000000EB
:10370000F71002818C62000830013000C45D0008AF
:1037100000000000385D000804000000883901083E
:10372000F7100181AC6200082002590064500008C3
:1037300000000000804D00081C0008000000000090
:10374000FF100081CC62000830028200C44D0008E6
:10375000984D0008A04D00080400000088390108B9
:10376000FE100081DC62000820028100C44D0008C8
:10377000BC4D0008CC4D00081C000C0000000000EF
:10378000F6100081FC62000830010800C45D0008EA
:1037900000000000E84D000804000000883901081E
:1037A000F11000810C630008300377004C5C0008C6
:1037B00000000000104E00080C00040034B70008A0
:1037C000FB1003811C630008300372004C5C00088E
:1037D00000000000344E0008080004008839010889
:1037E000F51003812C63000830026F00C45D0008EF
:1037F00000000000584E000804000000883901084D
:10380000F41003813C63000820026E00C45D0008D0
:1038100000000000684E00080800040000000000DE
:10382000F01001814C63000830045400AC510008D2
:10383000A4510008784E00083000100088D6000817
:10384000F91002815C63000820016700C45D000874
:10385000B84E0008C04E0008080004000000000038
:10386000FA1002816C630008300596001C5D0008A8
:10387000000000008C5D00080C0008009039010871
:10388000F91003818C63000830013E00C45D00081C
:1038900000000000BC520008040000008839010844
:1038A000F61001819C630008300485001C5D00084F
:1038B000000000008C5D00080C0008009039010831
:1038C000F3100181AC63000820025700CC4F0008C0
:1038D00000000000D84E00081000080000000000A2
:1038E000F9100081BC63000830014E00C45D00087F
:1038F00000000000F04E00080400000088390108B4
:10390000F8100081CC63000830014D00C45D000850
:10391000E84E0008F04E000810000800F0C2000851
:10392000FF100281DC63000820013500C45D00083F
:1039300000000000385D00081400040000000000D2
:10394000F4100081EC63000828014900C45D000800
:1039500000000000844F00080400000088390108BE
:10396000FC100281FC63000801016800803B000834
:10397000F21003810C64000830016C00C45D000883
:1039800000000000385300080400000088390108D6
:10399000F91000811C64000801010D00C04C0008F2
:1039A000F11003812C64000820013700C45D000879
:1039B000284F0008304F00080800040000000000F5
:1039C000F21003814C64000820013800C45D000837
:1039D000404F0008484F00080800040000000000A5
:1039E000F21000815C64000830014700C45D0008EB
:1039F0007C4F0008844F000804000000883901084B
:103A0000F71000816C64000801017C00FC4B000889
:103A1000FF1002817C64000820036B00F05800084E
:103A200000000000385300082400080000000000D7
:103A3000FF1000818C64000801015200203800084A
:103A4000FF1003819C6400083001A300C45D0008DE
:103A500000000000985C000804000000883901089C
:103A6000FE100281AC64000830019900C45D0008BA
:103A7000C44F00089059000804000000883901086C
:103A8000F1100181CC64000820025500CC4F0008E1
:103A900000000000B05900081400080000000000F9
:103AA000FB100381DC64000830014000C45D0008A5
:103AB000000000000C5000081000040038DC000872
:103AC000FA100381EC64000830013F00C45D000877
:103AD00000000000BC5200081C00000088390108EA
:103AE000F51001811C6500082002580040500008B4
:103AF0003850000848500008340010000000000052
:103B0000F01003812C65000820013600C45D000818
:103B100000000000385D00082000040000000000E4
:103B2000FE1002813C65000820013400C45D0008DD
:103B300000000000385D00081800040000000000CC
:103B4000F81001815C65000820025A0064500008EA
:103B5000000000003C5B00080800040000000000BA
:103B6000F71001816C6500083001AF00C45D0008EA
:103B700000000000985C000804000000883901087B
:103B8000FE1002817C65000820016A00C45D000807
:103B9000000000006C5000081C0000000000000045
:103BA000FD1002819C65000801016900AC4B000812
:103BB000F0100281AC650008200105007850000873
:103BC00000000000B05D000844000800F0CF0008CD
:103BD000F1100181BC65000820038300085A000829
:103BE000805000088C5000083C00200000000000BD
:103BF000F2100381DC65000830019C00C45D000800
:103C000000000000905900080400000088390108F5
:103C1000F8100081EC65000820040B0090550008A6
:103C200000000000D45000086000180000000000F0
:103C3000FA100281FC65000820030A009055000874
:103C400000000000F05000086000180000000000B4
:103C5000FC1002810C660008300209009055000833
:103C6000000000000C51000820001400D0D0000813
:103C7000F11000811C66000830010100C45D0008DD
:103C800028510008B05D00080400000088390108D0
:103C9000F51000813C66000830027A00545100089B
:103CA00000000000585C00080C000800C8FD000877
:103CB000F71003814C660008300371004C5B00086C
:103CC0005C5100086451000828002400F4D5000865
:103CD000FA1002815C66000830035300AC51000802
:103CE000A4510008BC5100083000100088D600081C
:103CF000FD1002816C66000830019800C45D000868
:103D00000000000088540008040000008839010801
:103D1000F01003817C66000830019A00C45D000841
:103D200000000000905900080400000088390108D4
:103D3000F81003819C6600083002A000305D000886
:103D400000000000985C00080400000088390108A9
:103D5000FB100081AC66000830020E00C05900085C
:103D6000000000000452000810000400942C010818
:103D7000F9100181CC6600083001B100C45D000873
:103D800000000000985C0008040000008839010869
:103D9000F4100181DC6600083001AC00C45D00084D
:103DA00000000000985C0008040000008839010849
:103DB000F3100181EC6600083001AB00C45D00081F
:103DC00000000000985C000810000C0008040108C6
:103DD000FC100181FC66000830018A00C45D000807
:103DE00000000000E45400080400000088390108C5
:103DF000FE1003810C67000820054300B85A000834
:103E000028520008305200083C0014000000000056
:103E1000FC1003811C67000830014100C45D0008EC
:103E200098520008A45200082C002800340501080C
:103E3000F71003812C67000820013D00C45D0008D5
:103E4000B4520008BC520008080004000000000042
:103E5000FC1000813C67000830054400B85A000897
:103E6000CC520008405A000838001800FC0601082F
:103E7000F01003815C67000820024200F05800083F
:103E800000000000DC5200082400080000000000D0
:103E9000F11000817C67000820014600C45D000825
:103EA000045300080C530008080004000000000040
:103EB000F61000818C67000801017B00244B00088C
:103EC000FD1001819C67000801018B00B03F0008D4
:103ED000F3100381CC67000820016D00C45D000869
:103EE0000000000038530008100008000000000027
:103EF000FA100181FC67000830018900C45D0008E8
:103F000068530008E45400080400000088390108E0
:103F1000F81002811C68000830019300C45D00089D
:103F20008054000888540008040000008839010803
:103F3000F11003812C68000800019B00C45D00089B
:103F40000000000098540008080000000000000075
:103F5000F51003814C68000820029E00A45400085C
:103F6000000000009059000810000C000000000044
:103F7000F41002815C6800080101900020430008F1
:103F8000F41001816C68000801018400E84C00080D
:103F9000FA1000817C68000828017D00C45D0008DB
:103FA00000000000585C00080C000400F82901081B
:103FB000FE1001818C68000828028C00DC54000887
:103FC00000000000E4540008100000005C1101082B
:103FD000FD1000819C68000830055000B85A0008A8
:103FE000005500080855000838001800E02A0108AC
:103FF000FC100181AC6800082801B300C45D000812
:1040000000000000985C000810000400CC1E0108AD
:10401000F1100281BC68000801018D00C048000851
:10402000FE100081CC68000820031200CC59000863
:1040300000000000D85900083400140000000000FF
:10404000FD100081DC68000830021000085A0008EA
:1040500070550008D85900080C000400F82B01081E
:10406000FA100081EC68000830030F00C059000806
:10407000000000007855000810000400942C01088E
:10408000F7100081FC68000820050C00905500081E
:1040900000000000A45500086C0020000000000093
:1040A000FC1001818C6C000830055D00F0580008A0
:1040B000C0550008CC55000844001C00C820010869
:1040C000F3100281AC6C000820046400F058000872
:1040D0002C5600083C560008500024000000000048
:1040E000F0100281BC6C000820056200F058000846
:1040F000A4560008B4560008600028000000000024
:10410000FD100181CC6C000820065F00F05800080B
:104110002457000830570008540024000000000015
:10412000F5100081DC6C000801014A00104C000809
:10413000FF100181EC6C000820056100F0580008B8
:10414000905700089C5700084C0020000000000019
:10415000F5100281FC6C000830055E00F058000884
:10416000FC5700080858000844001C00E42001081F
:10417000F11002810C6D000820056300B85A000898
:104180006858000874580008480028000000000023
:10419000FE1001812C6D000820066000F058000818
:1041A000E4580008085900085000240000000000EE
:1041B000F11002815C69000830031B00F85C000804
:1041C000000000008C5D00080C0008009039010818
:1041D000F61000816C6900083001A600C45D00087B
:1041E000000000006859000810000400242701089E
:1041F000F91001817C690008300388007C5D0008AB
:10420000000000008C5D00080C00080090390108D7
:10421000F91002818C69000830039400705D000879
:10422000000000008C5D00080C00080090390108B7
:10423000F4100081BC69000830022300705D0008A2
:10424000000000008C5D00080C0008009039010897
:10425000FC100381DC690008300219007C5D000855
:10426000000000008C5D00080C0008009039010877
:10427000FE100081EC69000820059100985D00089F
:1042800000000000745900081C0014000000000029
:10429000F31003812C6A000830029D008859000841
:1042A000000000009059000804000000883901084F
:1042B000FD1000813C6A00082801AA00C45D0008C6
:1042C00000000000985C0008040000008839010824
:1042D000FA1000814C6A00080101A700F0480008AC
:1042E000F71003815C6A000820029F00305D00081F
:1042F00000000000A05900080C00040000000000AD
:10430000F21001816C6A000828015600C45D0008A3
:1043100000000000B05900080400000088390108BE
:10432000F51002819C6A000828021100CC5900088F
:1043300000000000D859000834001400F4250108DA
:10434000FA100181BC6A0008280113007C5C000897
:1043500000000000145A0008080000008839010815
:10436000F9100281CC6A000820013200C45D000807
:1043700000000000385D000810000C000000000084
:10438000F8100281DC6A0008010131006043000876
:10439000FF100381EC6A000830064500B85A000897
:1043A000345A0008405A0008540034008427010899
:1043B000FA100081FC6A000830064F00B85A000865
:1043C000AC5A0008D05A00083800180080290108AB
:1043D000FB1000810C6B000828017E00C45D000802
:1043E00000000000585C0008040000008839010843
:1043F000FB1001811C6B000830015C00C45D0008EB
:10440000000000003C5B000804000000883901083F
:10441000F91003812C6B0008200270004C5B00082F
:1044200000000000585B00081C001800000000009D
:10443000FE1000813C6B000830015100C45D000893
:104440007C5B0008845B000814000800EC34010861
:10445000FC1003814C6B0008300373004C5C0008B7
:1044600000000000985B000808000400883901087B
:10447000FD1003815C6B0008300374004C5C000885
:1044800000000000BC5B0008080004008839010837
:10449000FE1003816C6B0008300375004C5C000853
:1044A00000000000E05B00080800040088390108F3
:1044B000FF1003817C6B0008300376004C5C000821
:1044C00000000000045C00080800040088390108AE
:1044D000F21000818C6B0008300378004C5C0008FF
:1044E00000000000285C000808000400883901086A
:1044F000F31000819C6B0008300379004C5C0008CD
:1045000000000000585C0008080004008839010819
:10451000FB100181AC6B00080101B200F03F000804
:10452000FF1000819C6C0008300314007C5C0008C4
:1045300000000000505D000818001000D42C010895
:10454000FA100181CC6B000801015B00040000003F
:10455000F1100181DC6B0008010115000900000069
:10456000FB100281EC6B0008010133000B0000001E
:10457000F2100181FC6B000801011600060000002A
:10458000F31001810C6C0008010117000700000006
:10459000F51001815C6C000830041C00F85C000818
:1045A000000000008C5D000810000C00903901082C
:1045B000F31000816C6C0008300324001C5D0008BF
:1045C000000000008C5D00080C0008009039010814
:1045D000F91000811C6D0008300118007C5D000896
:1045E000000000008C5D00080C00080090390108F4
:1045F000FD1001817C6C00083001B400C45D00082E
:1046000000000000985C00080400000088390108E0
:10461000FE1001813C6D000830000000C45D000800
:1046200000000000B05D00080400000088390108A7
:10463000FD1003814C6D00082801A200C45D000834
:1046400000000000A85C0008040000008839010890
:10465000FC1000815C6D00081001A900C45D000819
:1046600000000000B45C0008140004009C3601083F
:10467000F61001816C6D000820021E00E05C00084D
:10468000C05C0008C85C000814000800B4360108CB
:10469000F71000817C6D000830011D00E05C00080F
:1046A000D85C0008E85C000814000800B436010873
:1046B000F71001818C6D0008300486007C5D0008D5
:1046C000000000008C5D00080C0008009039010813
:1046D000F11000819C6D00083004A4001C5D0008EE
:1046E000000000008C5D00080C00080090390108F3
:1046F000F2100081AC6D0008300495001C5D0008CC
:10470000000000008C5D00080C00080090390108D2
:10471000FB100281BC6D0008300597001C5D00088D
:10472000000000008C5D00080C00080090390108B2
:10473000F4100281CC6D000830042D001C5D0008CF
:10474000000000008C5D00080C0008009039010892
:10475000F3100281DC6D000830042C001C5D0008A1
:10476000000000008C5D00080C0008009039010872
:10477000F2100281EC6D000830032B00705D000820
:10478000000000008C5D00080C0008009039010852
:10479000F0100281FC6D000830042A00F85C00086B
:1047A000000000008C5D00080C0008009039010832
:1047B000FE1003810C6E000830042500085D00081F
:1047C000000000008C5D00080C0008009039010812
:1047D000FF1001811C6E000830032900705D000885
:1047E000000000008C5D00080C00080090390108F2
:1047F000FE1001812C6E0008300428001C5D0008AA
:10480000000000008C5D00080C00080090390108D1
:10481000FD1000813C6E000830058000085D000836
:10482000000000008C5D00080C00080090390108B1
:10483000F71002814C6E000830036500705D0008BF
:10484000000000008C5D00080C0008009039010891
:10485000FD1001815C6E0008300427001C5D00081B
:10486000000000008C5D00080C0008009039010871
:10487000FC1001816C6E000830052600085D000800
:10488000000000008C5D00080C0008009039010851
:10489000FC1000817C6E000830047F001C5D000865
:1048A000000000008C5D00080C0008009039010831
:1048B000F81001818C6E00080101B00008000000B2
:1048C000F51001819C6E00080101AD000A00000096
:1048D000F6100181AC6E00080101AE000500000079
:1048E000F6100281BC6E000801012F00D0480008BC
:1048F000FB100081CC6E00080101A80050460008A2
:10490000F5100281DC6E000801012E0090460008BF
:10491000F2100281EC6E000801018E0010460008C2
:10492000F9100181FC6E000830022000305D0008A3
:1049300000000000385D000804000000883901080C
:10494000F71001810C6F000820021F00485D00086D
:1049500000000000505D000814000000000000008E
:10496000F81001811C6F000830038700705D00089B
:10497000000000008C5D00080C0008009039010860
:10498000FA1003812C6F00082004A1007C5D000850
:10499000000000008C5D00080C0008000000000012
:1049A000FB1001813C6F0008300322007C5D000891
:1049B000000000008C5D00080C0008009039010820
:1049C000FA1001814C6F0008300421007C5D000862
:1049D000000000008C5D00080C0008009039010800
:1049E000F11001815C6F000820020200985D000850
:1049F00000000000B05D00080C000800000000008E
:104A0000F01001816C6F000820030300985D00081E
:104A100000000000B05D000810000C000000000065
:104A2000F31002817C6F000830018F00C45D000824
:104A300000000000CC5D00081C000C00303C0108A8
:104A4000F51000812C620008060100000000000043
:104A5000FD1003813C620008060101000000000017
:104A6000F81003814C6200080601000000000000FD
:104A7000F41001816C62000834010000CC4F000882
:104A800000000000F61001817C6200082401000093
:104A900040500008784D0008F91001819C62000820
:104AA000340100006450000800000000F010018193
:104AB000BC62000834010000C44D0008904D00089D
:104AC000FB100181EC6200080601010000000000FB
:104AD000FF1002817C630008060100000000000056
:104AE000F41002813C64000806010200000000008E
:104AF000F6100381BC64000824010000A4540008DF
:104B000000000000F8100381FC64000806010000AA
:104B100000000000FB1000810C6500080601010088
:104B200000000000F91000814C650008340100000D
:104B30005451000800000000F31001818C6500084A
:104B40000601010000000000FC100081CC65000897
:104B500034010000C45D000800000000F61002816E
:104B60002C66000834040000F05800084851000882
:104B7000FC1002818C66000834010000C45D00084E
:104B800000000000F2100181BC6600083402000041
:104B9000085A00081C520008F21002814C670008F5
:104BA00034040000B85A0008D4520008F110038100
:104BB0006C67000824010000F058000800000000A5
:104BC000FF100181AC67000824010000DC540008DC
:104BD00000000000FA100381BC67000824010000F7
:104BE0004C5B000800000000F4100081DC67000846
:104BF000340200004C5C000800000000F810008146
:104C0000EC670008340100004C5C00080000000064
:104C1000FB1002811C6C000834030000F0580008EF
:104C200000540008F81000810C680008060100001C
:104C300000000000F01001813C6800083402000010
:104C40007C5C000800000000F91003819C690008EA
:104C500034010000305D000800000000F810018100
:104C6000AC69000834010000485D00080000000045
:104C7000FB100381CC690008340300007C5D000850
:104C800000000000FF100081FC69000824040000FF
:104C9000985D000800000000F21001810C6A000815
:104CA00034010000985D000800000000F41003814A
:104CB0001C6A000834010000885900080000000048
:104CC000FD1002817C6A000834010000C059000810
:104CD00000000000F61002818C6A00083401000018
:104CE000CC59000800000000F5100181AC6A0008F2
:104CF00034010000085A0008005A0008F610038129
:104D0000BC6B000834010000C45D00080000000016
:104D1000C4780008CC350108E03501085431010899
:104D200088390108244C00083CC00008244C0008C5
:104D3000C4A00008607E0008CC350108E0350108F9
:104D4000C07E0008E07E0008244C0008C4A00008D3
:104D5000244C000888390108244C00088089000888
:104D6000244C00086093000800000000244D000857
:104D7000244C000808980008000000002C4D000892
:104D800000310108CC350108E03501087C860008B7
:104D900000000000484D000800000000504D0008D1
:104DA00000310108CC350108E035010888390108D7
:104DB0008839010888390108883901080000000095
:104DC000584D000810460008AC4A000800310108A0
:104DD000CC350108E035010880890008088A000800
:104DE000348A0008648A000800310108CC350108C3
:104DF000E0350108BC8A0008244C0008BC9F00086C
:104E0000244C000850A00008D04A0008DCA000088C
:104E100000310108CC350108E03501085C8C000840
:104E20007C1C0108081E0108C08C0008108D0008B9
:104E3000508D000800310108CC350108E03501082B
:104E4000908D00087C1C0108081E0108D88D000800
:104E5000288E0008648E000800310108CC35010856
:104E6000E0350108C090000800310108CC35010888
:104E7000E03501081091000800310108CC35010827
:104E8000E0350108240A010854B9000874B9000883
:104E90007CB90008D0B9000818E1000820E100083A
:104EA000F4B9000858BA000878BA000880BA0008B7
:104EB00098BA0008A891000800000000604D0008A2
:104EC00000310108CC350108E03501086093000885
:104ED000D04A00084C02010800310108CC35010815
:104EE000E03501087496000800000000704D0008CD
:104EF00000310108CC350108E035010808980008A8
:104F0000244C0008E0A90008244C00089CAF0008CD
:104F1000384B00081CB10008B4B00008404A000833
:104F20008C9F0008A49F000800000000F84D0008B6
:104F300000310108CC350108E0350108BC9F0008AC
:104F400000000000004E000800310108CC350108C7
:104F5000E035010850A00008044B0008800B010850
:104F6000580B0108080C0108780A0108ECFB00083E
:104F7000384B0008C4A00008C4A0000800000000CE
:104F8000084E000800310108CC350108E035010861
:104F9000DCA00008044B000894B800086CB80008B6
:104FA000B8120108ACB8000864B80008044B000847
:104FB00080BA000858BA000898BA00087CB90008FE
:104FC000F4B9000800000000D04E000810460008A8
:104FD000704A0008244C00084C030108384B0008B4
:104FE000A8A40008B4B00008044B0008800B010816
:104FF000580B0108080C0108780A0108A80B0108E1
:10500000244C000894BF0008504A000884A60008F9
:10501000CC350108E0350108604A0008B4A6000854
:10502000044B0008800B0108580B0108080C01080C
:10503000780A0108A80B010800000000004F0008D2
:1050400010460008844A000800310108CC350108E8
:10505000E0350108E0A90008384B000878C30008D3
:105060005CC3000810460008984A00085CAC0008C1
:10507000CC350108E035010810460008B03B0008B7
:1050800000000100084F0008104F0008003101081F
:10509000CC350108E03501085CAF000868AF0008B6
:1050A0009CAF0008DCAF000830B0000898B00008E2
:1050B00084DB0008B4B00008C4B000081CB10008CC
:1050C000DCB10008E4B10008D04A00083CE7000861
:1050D000C04A000800310108CC350108E03501085C
:1050E00014F300086CF200081CF400086CF40008CB
:1050F00000310108CC350108E0350108F4BC000896
:105100006CF200081CF400086CF40008003101087F
:10511000CC350108E0350108F4BC00086CF2000849
:1051200080D10008E4B20008000000001C4F000815
:10513000044B0008800B0108580B0108080C0108FB
:10514000780A0108ECFB000800000100584F000835
:10515000704F000810460008244B000800000000B3
:10516000944F000800310108CC350108E0350108F2
:1051700070B70008E0B70008F4B70008B8120108DB
:105180001CB8000838B8000864B800086CB80008FB
:105190008CB8000894B80008ACB80008C8B800087B
:1051A000E0B8000800000000AC4F000810460008FE
:1051B000AC4B0008703E0008D03C000800310108EC
:1051C000CC350108E0350108240A010854B900086B
:1051D00074B900087CB90008D0B9000818E10008CB
:1051E00020E10008F4B9000858BA000878BA0008AD
:1051F00080BA000898BA0008B4BA0008D04A00087B
:10520000F4D8000800310108CC350108E035010868
:10521000F4BC00086CF200080CF300080000010068
:10522000D44F0008DC4F000800000000E84F0008E1
:1052300000310108CC350108E0350108240A0108D5
:10524000500A0108700A0108780A0108CC0A01080E
:10525000F00A01080C0B0108280B0108580B010883
:10526000780B0108800B0108A80B0108080C010845
:1052700018BD0008B4BE0008740F0108B40F01087F
:10528000D80F01082810010818BF00087CFA000890
:10529000F8FA0008A8EA0008000001000050000821
:1052A0000850000800310108CC350108E03501083C
:1052B00094BF0008000000001850000800310108E9
:1052C000CC350108E03501083CC0000800000000B2
:1052D000BC54000800000000205000080031010804
:1052E000CC350108E0350108240A010800C1000896
:1052F0001CC1000828CB000850CB000818E10008AA
:1053000020E10008010001005850000800310108A8
:10531000CC350108E03501085CC3000878C30008FB
:10532000044B0008800B0108580B0108080C010809
:10533000780A0108E4E9000800310108CC350108C9
:10534000E0350108240A0108FCCA000820CB000847
:1053500028CB000850CB000818E1000820E1000825
:10536000244C00084C03010800000100C85000084C
:10537000D0500008044B0008800B0108580B0108AE
:10538000080C0108780A0108C0F40008384B00082E
:1053900060F500087CF50008044B0008800B01084C
:1053A000580B0108080C0108780A0108ECF5000800
:1053B000E04A0008A4F60008883901088CF60008C5
:1053C000044B0008800B0108580B0108080C010869
:1053D000780A0108ECFB0008384B0008D0F60008FA
:1053E000ECF60008E04A000898F700088839010840
:1053F00084F70008384B0008C4F70008E0F70008FD
:105400000000000030510008044B0008800B010828
:10541000580B0108080C0108780A0108ECFB000889
:10542000384B000864F800086CF80008384B000896
:10543000BCF80008D8F80008044B0008800B0108ED
:10544000580B0108080C0108780A0108A80B01088C
:10545000384B000894FB000848FB0008044B000888
:10546000800B0108580B0108080C0108780A010894
:10547000ECFB0008384B000820FD00083CFD00084C
:1054800000000000FC51000800310108CC35010883
:10549000E0350108F4D8000800D9000818D9000840
:1054A00040D9000810460008F04A0008244C0008C3
:1054B0004C030108144B0008F4060108044B0008D3
:1054C000800B0108580B0108080C0108780A010834
:1054D000A80B0108144B0008281101081046000809
:1054E000C04B000800310108CC350108E035010847
:1054F0003CE70008384B0008481301083013010846
:10550000000000002053000800310108CC350108DC
:10551000E0350108240A0108500A0108700A010850
:10552000780A0108CC0A0108F00A01080C0B0108EE
:10553000280B0108580B0108780B0108800B0108A3
:10554000E4E90008080C01085CEA0008A8F9000872
:10555000740F0108B40F0108D80F010828100108C2
:105560000CFA00087CFA0008F8FA0008A8EA00081B
:10557000000000006053000800310108CC3501082C
:10558000E035010858F200086CF200080CF300083E
:1055900010460008C04C0008503C0008303C000891
:1055A000103C000800310108CC350108E035010845
:1055B00014F30008ECF300081CF400086CF4000875
:1055C00000000100745300088C53000800310108EA
:1055D000CC350108E0350108240A0108500A010809
:1055E000700A0108780A0108CC0A0108F00A0108CB
:1055F0000C0B0108B0FB0008580B0108780B0108E0
:10560000800B0108C0F40008080C010814FC000815
:1056100088FC0008B4FC0008DCFC000804FD00085D
:105620002810010860F500087CF500080000020061
:105630009853000800000000B05300080031010832
:10564000CC350108E0350108240A0108500A010898
:10565000700A0108780A0108CC0A0108F00A01085A
:105660000C0B0108B0FB0008580B0108780B01086F
:10567000800B0108ECF50008080C010814FC000878
:1056800088FC0008B4FC0008DCFC000804FD0008ED
:105690002810010884F600088CF6000888390108F3
:1056A000A4F6000800000200C0530008D853000808
:1056B000E453000800310108CC350108E035010849
:1056C000240A0108500A0108700A0108780A010832
:1056D000CC0A0108F00A01080C0B0108B0FB000815
:1056E000580B0108780B0108800B0108ECFB00083F
:1056F000080C010814FC000888FC0008B4FC000831
:10570000DCFC000804FD000828100108D0F60008A1
:10571000ECF600087CF7000884F7000888390108D7
:1057200098F70008000001005C540008F4530008DA
:1057300000310108CC350108E0350108240A0108D0
:10574000500A0108700A0108780A0108CC0A010809
:10575000F00A01080C0B0108B0FB0008580B010807
:10576000780B0108800B0108ECFB0008080C01080D
:1057700014FC000888FC0008B4FC0008DCFC0008ED
:1057800004FD000828100108C4F70008E0F700082D
:1057900000000100085400082054000800310108EE
:1057A000CC350108E0350108240A0108500A010837
:1057B000700A0108780A0108CC0A0108F00A0108F9
:1057C0000C0B0108B0FB0008580B0108780B01080E
:1057D000800B0108ECFB0008080C010814FC000811
:1057E00088FC0008B4FC0008DCFC000804FD00088C
:1057F0002810010864F800086CF800080000010097
:105800005C5400082C54000800310108CC35010814
:10581000E0350108240A0108500A0108700A01084D
:10582000780A0108CC0A0108F00A01080C0B0108EB
:10583000B0FB0008580B0108780B0108800B010829
:10584000ECFB0008080C010814FC000888FC0008A8
:10585000B4FC0008DCFC000804FD00082810010866
:10586000BCF80008D8F8000800000100385400080F
:105870005054000800310108CC350108E03501081A
:10588000240A0108500A0108700A0108780A010870
:10589000CC0A0108F00A01080C0B0108280B0108CA
:1058A000580B0108780B0108800B0108A80B0108B0
:1058B000080C0108F4F80008A8F90008740F0108A2
:1058C000B40F0108D80F0108281001080CFA0008CD
:1058D0007CFA0008F8FA000840FB000848FB0008C2
:1058E00094FB0008000001005C5400087454000898
:1058F00010460008AC4B0008703E0008104C000831
:105900005C4B00085041000800310108CC3501080B
:10591000E0350108240A0108500A0108700A01084C
:10592000780A0108CC0A0108F00A01080C0B0108EA
:10593000B0FB0008580B0108780B0108800B010828
:10594000ECFB0008080C010814FC000888FC0008A7
:10595000B4FC0008DCFC000804FD00082810010865
:1059600020FD00083CFD000860FF0008CC35010860
:10597000E035010880010108CC350108E035010857
:10598000543101088839010810460008AC4C000861
:1059900000310108CC350108E03501084C0201084E
:1059A00000310108CC350108E0350108C8020108C2
:1059B00000310108CC350108E0350108F402010886
:1059C00010460008C04C0008503D00081046000872
:1059D000D44C00082043000800310108CC350108F0
:1059E000E035010818030108240301084C030108ED
:1059F00080030108AC030108C0030108E8030108A3
:105A000000000000AC54000810460008E84C0008F4
:105A1000844B000800310108CC350108E03501084D
:105A2000F0230108000401088839010888390108B9
:105A30008839010800000100BC540008B454000873
:105A400000310108CC350108E0350108240A0108BD
:105A5000500A0108700A0108780A0108CC0A0108F6
:105A6000F00A01080C0B0108280B0108580B01086B
:105A7000780B0108800B0108A80B0108080C01082D
:105A8000240C0108CC0E0108740F0108B40F0108A2
:105A9000D80F01082810010840100108BC100108A7
:105AA000D410010810110108F406010800000100DB
:105AB000BC540008D454000810460008AC4B000841
:105AC000703E0008104C0008984B0008503E00083B
:105AD00000310108CC350108E0350108240A01082D
